:020000040800F2
:1000000088AE00202903000865500008593C00080C
:100010002D500008110B00086B8100080000000043
:10002000000000000000000000000000690200085D
:10003000CF14000800000000C50200082D7D000854
:100040004303000843030008430300084303000878
:100050004303000843030008D114000843030008C9
:1000600043030008DB140008E514000843030008FC
:100070004303000843030008430300084303000848
:100080004303000843030008430300084303000838
:10009000150B00084303000843030008EF14000891
:1000A0004303000843030008430300084303000818
:1000B0004303000843030008430300084303000808
:1000C00043030008430300084303000843030008F8
:1000D00043030008430300084303000843030008E8
:1000E00043030008430300084303000843030008D8
:1000F00043030008430300084303000843030008C8
:1001000043030008430300084303000843030008B7
:1001100043030008430300084303000843030008A7
:100120004303000843030008850B0008430300084D
:100130004303000843030008430300084303000887
:10014000250B00084303000843030008430300088D
:100150004303000843030008430300084303000867
:100160004303000843030008430300084303000857
:100170004303000843030008430300080000000095
:10018000430300084303000800F002F800F05CF8A5
:100190000AA090E8000C82448344AAF10107DA45E2
:1001A00001D100F051F8AFF2090EBAE80F0013F0D8
:1001B000010F18BFFB1A43F001031847B0B300004A
:1001C000D0B300000A444FF0000C10F8013B13F0CC
:1001D000070408BF10F8014B1D1108BF10F8015BA0
:1001E000641E05D010F8016B641E01F8016BF9D193
:1001F00013F0080F1EBF10F8014BAD1C0C1B09D1EA
:100200006D1E58BF01F801CBFAD505E014F8016B5B
:1002100001F8016B6D1EF9D59142D6D370470000ED
:100220000023002400250026103A28BF78C1FBD8FF
:10023000520728BF30C148BF0B6070471FB50BF095
:1002400030F91FBD10B510BD00F002FA1146FFF7DE
:10025000F5FF09F02BF900F020FA03B4FFF7F2FFE5
:1002600003BC00F023FA00002C4B19680868B0E8C2
:10027000F04F80F30988BFF36F8F4FF0000080F3D9
:10028000118870470000000008480068006880F38B
:1002900008884FF0000080F3148862B661B6BFF39F
:1002A0004F8FBFF36F8F00DF00BF00BF08ED00E08E
:1002B000DFF80C00016841F470010160704700BF75
:1002C00088ED00E0EFF30980BFF36F8F134B1A68DE
:1002D0001EF0100F08BF20ED108A20E9F04F1060CB
:1002E00009B44FF0500080F31188BFF34F8FBFF374
:1002F0006F8F0AF03BF94FF0000080F3118809BCC2
:1003000019680868B0E8F04F1EF0100F08BFB0EC95
:10031000108A80F30988BFF36F8F7047E8000020D0
:10032000EFF30580704700000948804709480047FF
:10033000FEE7FEE7FEE7FEE7FEE7FEE7FEE7FEE795
:10034000FEE7FEE704480549054A064B70470000F2
:10035000F57D000889010008886E002088AE002025
:10036000888E0020888E002053EA020C00F06980FD
:100370002DE9F04B4FF00006002B1FBFB3FA83F5B9
:1003800003FA05F424FA05F65E4012BF1643B2FAEA
:1003900082F502FA05F4C5F120051EBF22FA05FC1C
:1003A00044EA0C04203556EA044C4FEA144418BFC2
:1003B000641C4FF000084FF00009904271EB030CF1
:1003C00039D3002919BFB1FA81F701FA07F6B0FA5B
:1003D00080F700FA07F6C7F120071EBF20FA07FCD6
:1003E00046EA0C062037B6FBF4FCA7EB0507103FE6
:1003F00007F01F0BCBF120060CFA0BFB2CFA06F6CC
:1004000044BFB3460026202FA4BF5E464FF0000B2A
:100410005BEA060C08BF4FF0010B19EB0B09ABFBB5
:10042000027C48EB0608C01B06FB02CC0BFB03CC8E
:1004300071EB0C01C1E70B46024641464846BDE858
:10044000F08B13B54FF000004FF00001AFF30080C8
:10045000BDE81C40704710B5431C02E010F8011BBA
:1004600071B18107FAD14FF0013202C88C1A8C4366
:1004700014EAC211F9D0C01A0A0603D0C01E10BD7A
:10048000C01A10BD0A0401D0801E10BD0902FCD0A4
:10049000401E10BD032A40F2308010F0030C00F023
:1004A000158011F8013BBCF1020F624498BF11F8AE
:1004B00001CB00F8013B38BF11F8013BA2F1040267
:1004C00098BF00F801CB38BF00F8013B11F00303DF
:1004D00000F02580083AC0F0088051F8043B083A43
:1004E00051F804CBA0E80810F5E7121D5CBF51F8E5
:1004F000043B40F8043BAFF30080D20724BF11F85F
:10050000013B11F801CB48BF11F8012B24BF00F8C3
:10051000013B00F801CB48BF00F8012B704710B534
:10052000203AC0F00B80B1E81850203AA0E81850EB
:10053000B1E81850A0E81850BFF4F5AF5FEA027CAC
:1005400024BFB1E81850A0E8185044BF18C918C01B
:10055000BDE810405FEA827C24BF51F8043B40F8BC
:10056000043B08BF7047D20728BF31F8023B48BFA1
:1005700011F8012B28BF20F8023B48BF00F8012BDF
:10058000704702F0FF0343EA032242EA024200F00E
:1005900037B84FF0000200B513469446964620390E
:1005A00022BFA0E80C50A0E80C50B1F12001BFF42C
:1005B000F7AF090728BFA0E80C5048BF0CC05DF892
:1005C00004EB890028BF40F8042B08BF704748BFE0
:1005D00020F8022B11F0804F18BF00F8012B704754
:1005E00070477047704710B500F02AF8006810BDDA
:1005F00010B5044600F024F8046010BD4FF000026E
:100600000429C0F0128010F0030C3FF4C4AFCCF109
:10061000040CBCF1020F18BF00F8012BA8BF20F892
:10062000022BA1EB0C01FFF7B6BF5FEAC17C24BF30
:1006300000F8012B00F8012B48BF00F8012B704790
:1006400000487047246E002000487047246E002048
:100650007546FFF7F9FFAE4605006946534620F0A0
:100660000700854618B020B5FFF76CFEBDE82040B6
:100670004FF000064FF000074FF000084FF0000B5E
:1006800021F00701AC46ACE8C009ACE8C009ACE811
:10069000C009ACE8C0098D46704710B50446AFF3F9
:1006A00000802046BDE81040FFF7D7BD0149182063
:1006B000ABBEFEE72600020070470000B7EE000A5E
:1006C00080ED000A9FED060A80ED010A9FED040A05
:1006D00080ED020A9FED020A80ED030A70470000D8
:1006E000000000002DE9F0412DED028B0746B0EE31
:1006F000408A0C4615461E46D6ED024AB0EE644AC4
:10070000D6ED014AF0EE643AD6ED004AB0EE643A16
:10071000D5ED024AF0EE642AD5ED014AB0EE642A26
:10072000D5ED004AF0EE641AD4ED024AB0EE641A38
:10073000D4ED014AF0EE640AD4ED004AB0EE640A4A
:10074000384604F01FF8BDEC028BBDE8F0810000D4
:1007500010B501221021024801F012FE10BD000068
:100760000000024010B500221021024801F008FEEE
:1007700010BD0000000002407047000010B50122CB
:100780001146024801F0FCFD10BD000000040240CB
:1007900010B500220121024801F0F2FD10BD000059
:1007A0000004024010B543781B021BB204782343B7
:1007B00000EE103AB8EEC01A1C4BD3ED001A21EE31
:1007C000211A81ED001AC3781B021BB284782343DF
:1007D00000EE103AB8EEC01A144BD3ED001A21EE19
:1007E000211A81ED011A43791B021BB204792343BC
:1007F00000EE103AB8EEC01A0C4BD3ED001A21EE01
:10080000211A81ED021A037A1B04C47943EA0423F6
:100810008479234300EE903AB8EE601ADFED041AB3
:1008200021EE211A82ED001A10BD0000B000002058
:1008300000401C42704710B50446204608F058FEA0
:1008400010BD10B50446204608F058FA10BD00004F
:100850004278120212B203781A4300EE102AF8EE20
:10086000C00A144A92ED001A60EE810AC1ED000A36
:10087000C278120212B283781A4300EE102AF8EE00
:10088000C00A0C4A92ED001A60EE810AC1ED010A1D
:100890004279120212B203791A4300EE102AF8EEDE
:1008A000C00A044A92ED001A60EE810AC1ED020A04
:1008B00070470000B400002010B50024FFF75CFF73
:1008C000FFF7B8FF07F074FF10B144F0800402E0B6
:1008D00007F0D4FE044308F063F910B144F040047B
:1008E00002E008F0E3F80443204610BD2DE9FC4186
:1008F00005460E461746002000900190FFF732FF94
:10090000922000F0D1F806226946122000F0ACF8DF
:10091000FFF71EFF9DF80100000200B29DF80010D5
:1009200040EA010400EE104AB8EEC00A4C48D0ED8F
:10093000000A20EE200A86ED000A9DF8030000025E
:1009400000B29DF8021040EA010400EE104AB8EE31
:10095000C00A4348D0ED000A20EE200A86ED010AC5
:100960009DF80500000200B29DF8041040EA010461
:1009700000EE104AB8EEC00A3948D0ED000A20EE69
:10098000200A86ED020AFFF703FF082269460020CD
:1009900000F06AF8FFF7F2FE9DF800000F2838D14A
:1009A0009DF80300000200B29DF8021040EA010425
:1009B00000EE104AB8EEC00A2A48D0ED000A20EE38
:1009C000200A85ED000A9DF80500000200B29DF89E
:1009D000041040EA010400EE104AB8EEC00A2148B3
:1009E000D0ED000A20EE200A85ED010A9DF80700EF
:1009F000000200B29DF8061040EA010400EE104A21
:100A0000B8EEC00A1748D0ED000A20EE200A85EDA6
:100A1000020AFFF7A7FEA22000F046F8022269466C
:100A2000222000F021F8FFF793FE9DF80000C0009F
:100A30009DF8011040EA6114B4F5806F02DBA4F563
:100A4000006004B200EE104AF8EEC00AB4EE001ADC
:100A5000B3EE070A00EE810A87ED000ABDE8FC81CB
:100A6000B0000020B400002070B506460C461546C4
:100A700046F0800000F018F806E0552000F014F869
:100A80002070641C681EC5B2002DF6D170BD70B513
:100A900004460D4644F0800000F006F8552000F0B2
:100AA00003F8287070BD000001B582B04FF47A7071
:100AB000012301AA02A90090024802F0DDFC9DF882
:100AC00004000EBDB008002010B502461378DB000C
:100AD000547843EA6410B0F5806F02DBA0F5006340
:100AE00018B200EE100AF8EEC00AB4EE001AB3EE27
:100AF000070A00EE810A81ED000A10BD70B50546B7
:100B00000C462846FFF7D0FF2046FFF7CDFF70BD0B
:100B100000BFFEE710B5024800F0CFFE10BD000098
:100B20000C08002010B5024800F0C7FE10BD000000
:100B3000340800202DE9F04106460C4617461D46B4
:100B40000F48046000200E4948608860C86008466D
:100B5000056101233A46304600F0E1FC60B1022312
:100B60003A460749304600F0DAFC28B104233A46F9
:100B70000349304600F0D3FC0020BDE8F0810000BE
:100B8000B40B002010B5FE48C06C0068FD498842D7
:100B900076D9FC4854380068F949C96C0968FA4AA2
:100BA000914201D1202169E0F549C96C0968F54AF3
:100BB000483A914201D1202160E0F149C96C0968AD
:100BC000F14A6032914201D1202157E0EC49C96CD1
:100BD0000968EC4A1832914201D120214EE0E849DF
:100BE000C96C0968E84A1832914201D1C91445E03C
:100BF000E349C96C0968E34A303A914201D1C9140A
:100C00003CE0DF49C96C0968DF4A7832914201D182
:100C1000C91433E0DA49C96C0968DA4A30329142C2
:100C200001D1C9142AE0D649C96C0968D64A3032C4
:100C3000914202D14FF4001120E0D149C96C0968FA
:100C4000D04A183A914202D14FF4001116E0CC4933
:100C5000C96C0968CC4A9032914202D14FF400111C
:100C60000CE0C749C96C0968C64A4832914203D1B1
:100C70004FF4001102E003E04FF00061084070E122
:100C8000BF48C06C0068C049A831884276D9BD48C9
:100C900058380068BA49C96C0968BB4A914201D109
:100CA000202169E0B649C96C0968B64A483A9142C0
:100CB00001D1202160E0B249C96C0968B24A6032B2
:100CC000914201D1202157E0AD49C96C0968AD4A74
:100CD0001832914201D120214EE0A949C96C09681E
:100CE000A94A1832914201D1C91445E0A449C96CFE
:100CF0000968A44A303A914201D1C9143CE0A049A4
:100D0000C96C0968A04A7832914201D1C91433E014
:100D10009B49C96C09689B4A3032914201D1C91480
:100D20002AE09749C96C0968974A3032914202D14A
:100D30004FF4001120E09249C96C0968914A183AB1
:100D4000914202D14FF4001116E08D49C96C096837
:100D50008D4A9032914202D14FF400110CE0884943
:100D6000C96C0968874A4832914203D14FF4001197
:100D700002E003E04FF000610840F2E08048C06C00
:100D8000006881494831884276D97F4810384068E8
:100D90007B49C96C09687C4A914201D1202169E0F4
:100DA0007749C96C0968774A483A914201D12021B4
:100DB00060E07349C96C0968734A6032914201D19D
:100DC000202157E06E49C96C09686E4A1832914279
:100DD00001D120214EE06A49C96C09686A4A18327B
:100DE000914201D1C91445E06549C96C0968654A59
:100DF000303A914201D1C9143CE06149C96C09689B
:100E0000614A7832914201D1C91433E05C49C96C1E
:100E100009685C4A3032914201D1C9142AE058492C
:100E2000C96C0968584A3032914202D14FF400111E
:100E300020E05349C96C0968524A183A914202D1DC
:100E40004FF4001116E04E49C96C09684E4A9032C1
:100E5000914202D14FF400110CE04949C96C096874
:100E6000484A4832914203D14FF4001102E003E0B6
:100E70004FF00061084074E0434810380068404972
:100E8000C96C0968404A914201D1202168E03C497F
:100E9000C96C09683B4A483A914201D120215FE080
:100EA0003749C96C0968384A6032914201D1202122
:100EB00056E03349C96C0968324A1832914201D16F
:100EC00020214DE02E49C96C09682F4A1832914201
:100ED00001D1C91444E02A49C96C0968294A303A49
:100EE000914201D1C9143BE02549C96C0968264AE1
:100EF0007832914201D1C91432E02149C96C0968A4
:100F0000204A3032914201D1C91429E01C49C96CF0
:100F100009681D4A3032914202D14FF400111FE09E
:100F20001749C96C0968174A183A914202D14FF41F
:100F3000001115E01249C96C0968134A90329142B8
:100F400002D14FF400110BE00D49C96C09680D4A3C
:100F50004832914202D14FF4001101E04FF000619C
:100F6000084000286FD00648C06C006805498842D8
:100F70007BD90348C06C00680349884208D105E06A
:100F8000B00800205864024010600240202068E051
:100F9000FE48C06C0068FE49884201D1202060E014
:100FA000FA48C06C0068FB49884201D1202058E013
:100FB000F648C06C0068F6496031884201D12020B3
:100FC0004FE0F248C06C0068F2494839884201D1CC
:100FD000C01446E0ED48C06C0068ED491831884205
:100FE00001D1C0143DE0E948C06C0068E9491831FE
:100FF000884201D1C01434E0E448C06C0068E44980
:101000007831884201D1C0142BE0E048C06C006800
:10101000E0493039884202D14FF4001021E0DB482A
:10102000C06C0068DA493031884202D14FF40010B8
:1010300017E0D648C06C0068D6493031884204D1E8
:101040004FF400100DE0DFE10FE0D048C06C006805
:10105000CF499031884202D14FF4001001E04FF0A7
:101060000060CB49091F08606AE1C848C06C00688D
:10107000C8494831884274D9C448C06C0068C54921
:101080006039884201D1202066E0C048C06C006809
:10109000BF49884201D120205EE0BC48C06C006896
:1010A000BC49884201D1202056E0B848C06C006895
:1010B000B7496031884201D120204DE0B348C06C6F
:1010C0000068B4494839884201D1C01444E0AF48AF
:1010D000C06C0068AE491831884201D1C0143BE0B1
:1010E000AA48C06C0068AB491831884201D1C014CD
:1010F00032E0A648C06C0068A5497831884201D129
:10110000C01429E0A148C06C0068A2493039884267
:1011100002D14FF400101FE09C48C06C00689C494D
:101120003031884202D14FF4001015E09748C06C6E
:10113000006898493031884202D14FF400100BE02A
:101140009248C06C006892499031884202D14FF4B5
:10115000001001E04FF000608D4908390860EFE0B1
:10116000FFE78A48C06C00688A491839884274D9F8
:101170008648C06C006887496039884201D12020C8
:1011800066E08248C06C00688149884201D1202015
:101190005EE07E48C06C00687E49884201D1202014
:1011A00056E07A48C06C006879496031884201D1C4
:1011B00020204DE07548C06C006876494839884267
:1011C00001D1C01444E07148C06C00687049183106
:1011D000884201D1C0143BE06C48C06C00686D4986
:1011E0001831884201D1C01432E06848C06C0068F0
:1011F00067497831884201D1C01429E06348C06C46
:10120000006864493039884202D14FF400101FE071
:101210005E48C06C00685E493031884202D14FF4AC
:10122000001015E05948C06C00685A4930318842B6
:1012300002D14FF400100BE05448C06C00685449D0
:101240009031884202D14FF4001001E04FF000606D
:1012500050497039C86073E0FFE74C48C06C0068C3
:101260004C496039884201D1202066E04748C06C73
:1012700000684749884201D120205EE04348C06CA5
:1012800000684449884201D1202056E03F48C06CA4
:1012900000683F496031884201D120204DE03B4841
:1012A000C06C00683B494839884201D1C01444E011
:1012B0003648C06C006836491831884201D1C014E4
:1012C0003BE03248C06C006832491831884201D195
:1012D000C01432E02D48C06C00682D497831884236
:1012E00001D1C01429E02948C06C0068294930396F
:1012F000884202D14FF400101FE02448C06C0068FF
:1013000023493031884202D14FF4001015E01F48C4
:10131000C06C00681F493031884202D14FF4001080
:101320000BE01A48C06C006819499031884202D11C
:101330004FF4001001E04FF00060164970398860EA
:101340001548007800F0020078B11348007820F0CA
:101350000200114908700846007840F00400087047
:10136000012211460D4801F00BF80D48007800F0FD
:101370000200E0B10A48007820F002000849087035
:101380000846007840F0040008700BE0B008002028
:1013900010640240706002404900002000040240D6
:1013A0004A00002001221021184800F0E9FF1848E7
:1013B000007800F0020078B11548007820F00200B3
:1013C000134908700846007840F0040008700122B4
:1013D00010210E4800F0D4FF07F05EFD0D480078A4
:1013E00000F0040080B10B48007820F004000949A7
:1013F00008700846007840F0080008700648006849
:1014000040F001000449086010BD000000000240E7
:101410004B00002049000020103C014001680A4BAD
:10142000CAB2103AA3FB02321209084B9B5CC36597
:10143000032A04D96FF30901091D816502E06FF3E6
:1014400009018165806D7047ABAAAAAA4EB5000854
:10145000014600208A6A8B69002B0FD0B3F5005F2C
:101460001DD08AB3012A30D0022A2ED0032A04D1FB
:10147000C96A11F0807F00D0012070471AB1012A9B
:1014800007D0022AF9D1C96A11F0807FF5D0012076
:101490007047C96AB1F1C07FFAD1012070475AB1D3
:1014A000012A0BD0022A07D0032AF7D1C96AB1F169
:1014B000C07FF3D10120704701207047C96A11F045
:1014C000807FFAD001207047FFE701207047704706
:1014D00010B5012000F032FE10BD10B5082000F05C
:1014E0002DFE10BD10B5102000F028FE10BD10B567
:1014F000202000F023FE10BD704790F82020012A24
:1015000007D0022A05D0416A41F4802141620120BE
:10151000704700684269114341610020704770B410
:1015200090F82040D0F800C0DCF808C0012C08D0AA
:10153000022C06D0416A41F48021416270BC012036
:1015400070470CF080640CF000652C4302D11CF055
:10155000805F5FD0CCF3016CBCF1020F06D9416A09
:1015600041F40001416270BC01207047012404FA7B
:101570000CF41C608B684FF4C0749BB1CD6804EB15
:101580000C162B434D6843EAC5030568AB514FF475
:10159000C273066803EB0C130D69F550097D012930
:1015A00009D00DE00D88CB6804EB0C1643EA4553D7
:1015B0000568AB51EBE70168CD5845F48075CD5017
:1015C0001179D379557941EA036193791B0443EA90
:1015D000052319434FF4C675036805EB0C155951E3
:1015E0001178D37841EA0361937852781B0443EA77
:1015F000022211434FF4C473026803EB0C13D15061
:10160000016804EB0C100A5842F001020A5070BC49
:1016100000207047416A41F40011416270BC012012
:101620007047000090F82020012A07D0022A05D038
:10163000416A41F480214162012070474248D0F85C
:10164000002242F00102C0F80022D0F8002222F469
:101650007C52C0F80022D0F800224B6A42EA0322F2
:10166000C0F800220A7D012302F01F0203FA02F2F1
:10167000D0F81C329343C0F81C32CB69D3B9D0F8F0
:101680000C329343C0F80C32B1F80CC04B686CF3C9
:101690001F43D1F814C000EBCC0CCCF84032B1F8A9
:1016A00008C00B686CF31F43D1F814C000EBCC0CDE
:1016B000CCF84432CB69012B1AD1D0F80C32134349
:1016C000C0F80C32B1F800C04B686CF31F43D1F87E
:1016D00014C000EBCC0CCCF84032B1F808C0CB6899
:1016E0006CF31F43D1F814C000EBCC0CCCF844329F
:1016F0008B697BB1D0F804321343C0F804320B6914
:1017000073B1D0F814321343C0F81432096A0129B6
:101710000CD010E0D0F804329343C0F80432EEE766
:10172000D0F814329343C0F81432EFE7D0F81C120B
:101730001143C0F81C12D0F8001221F00101C0F8CA
:10174000001200207047000000640040704710B491
:1017500090F820C0BCF1010F09D0BCF1020F06D0F7
:10176000416A41F48021416210BC0120704739B1C7
:10177000D0F800C0DCF810C01CF0030F7DD006E0EC
:10178000D0F800C0DCF80CC01CF0030F7BD04FF485
:10179000D87C04680CEB011C54F80C4004F00404E1
:1017A0009460002C7DD0046854F80C40E408546028
:1017B000046854F80CC00CF0020CC2F80CC04FF4D2
:1017C000DA7C04680CEB011C54F80C4004F00F04A4
:1017D0001461046854F80C40C4F30724946104684D
:1017E00054F80CC04FEA1C4CC2F814C04FF4DC7221
:1017F000D0F800C002EB01125CF802C083F800C010
:10180000D0F800C05CF802C04FEA1C2C83F801C07D
:10181000D0F800C05CF802C04FEA1C4C83F802C04C
:10182000D0F800C05CF80220120EDA704FF4DE72BD
:10183000D0F800C002EB01125CF802C083F804C0CB
:10184000D0F800C05CF802C04FEA1C2C83F805C039
:10185000D0F800C05CF802C04FEA1C4C83F806C008
:10186000D0F800C05CF80220120EDA71F9B10068FD
:10187000016941F02001016102E00BE003E010E0AA
:1018800010BC00207047416A41F40011416210BC55
:1018900001207047416A41F40011416210BC0120EF
:1018A0007047046854F80C40640D146080E70068C9
:1018B000C16841F02001C160DEE72DE9F05F054617
:1018C000002428684669D0F804908768D0F80CA0F6
:1018D000D0F810B0D0F8188016F0010F54D017F0DF
:1018E000010F17D00121816017F0020F03D02846A5
:1018F00000F02AFB0EE017F0040F02D04FF4006452
:1019000008E017F0080F02D04FF4805402E0284698
:1019100000F019FB17F4807F19D029684FF480700C
:10192000886017F4007F03D0284600F00FFB0EE01C
:1019300017F4806F02D044F4005408E017F4006FED
:1019400002D044F4804402E0284600F0FEFA17F486
:10195000803F19D029684FF48030886017F4003F29
:1019600003D0284600F0F4FA0EE017F4802F02D0DE
:1019700044F4004408E017F4002F02D044F480340B
:1019800002E0284600F0E3FA16F0080F07D01AF03C
:10199000100F04D044F4007429681020C86016F0B9
:1019A000040F4FF0080707D01AF0080F04D028687A
:1019B000C760284600F000FA16F0020F07D028682A
:1019C000C06810F0030F02D0284600F0F7F916F0B7
:1019D000400F07D01BF0100F04D044F48064296836
:1019E0001020086116F0200F07D01BF0080F04D05C
:1019F00028680761284600F071FA16F0100F07D02A
:101A00002868006910F0030F02D0284600F067FA3A
:101A100016F4003F08D019F0100F05D029681020E7
:101A20004860284600F05CFA16F4803F07D019F0B1
:101A3000080F04D028684760284600F08AFA16F498
:101A4000004F4AD019F0040F44D016F4807F04D020
:101A500018F0010F01D044F0010416F4007F04D007
:101A600018F0020F01D044F0020416F4806F04D085
:101A700018F0040F01D044F0040416F4006F29D0CC
:101A800018F0700F26D008F07000402815D006DC42
:101A9000102809D020280AD0302816D10AE0502872
:101AA0000ED0602811D10EE044F008040DE044F09F
:101AB00010040AE044F0200407E044F0400404E08D
:101AC00044F0800401E044F480742868816921F0C6
:101AD00070018161296804204860002C05D0686A83
:101AE000204368622846FFF731FEBDE8F09F70B5DD
:101AF0000446002C03D094F8200010B104E001202B
:101B000070BD204600F0A8F82068016841F001018E
:101B1000016000F03DFC0546206840684FF0050676
:101B200010F0010F11D100F033FC401B0A2807D937
:101B3000606A40F40030606284F82060012070BD6B
:101B40002068406810F0010FEDD02068016821F096
:101B50000201016000F01CFC05462068406810F09E
:101B6000020F11D000F014FC401B0A2807D9606A4C
:101B700040F40030606284F82060012070BD20686D
:101B8000406810F0020FEDD1207E01283FD0206880
:101B9000016821F080010160607E01283DD020684D
:101BA000016821F040010160A07E01283BD020683F
:101BB000016821F020010160E07E012839D0206811
:101BC000016841F010010160207F012837D02068B2
:101BD000016821F008010160607F012835D020688C
:101BE000016821F004010160E168A06862690843AE
:101BF0002169114308436168491E08432168C8618F
:101C000000206062012084F82000002070BD206860
:101C1000016841F080010160BEE72068016841F081
:101C200040010160C0E72068016841F020010160C7
:101C3000C2E72068016821F010010160C4E7206854
:101C4000016841F008010160C6E72068016841F0C1
:101C500004010160C8E7000010B586B004461421F5
:101C600001A8FEF796FC4E492068884241D14D48B4
:101C70000068401C4B4908600846006801280FD1E5
:101C800000BF002000904848006840F000704649BE
:101C900008600846006800F00070009000BF00BFB8
:101CA00000BF0020009040481038006840F0080055
:101CB0003D49103908600846006800F008000090AF
:101CC00000BF00BF0320019002200290002003907B
:101CD000032004900920059001A9344800F03AFA45
:101CE00000220521142000F029FF142000F018FF25
:101CF00054E02F492068884250D100BF0020009056
:101D00002948006840F0806027490860084600685C
:101D100000F08060009000BF00BF22480068401CB7
:101D2000204908600846006801280FD100BF002044
:101D300000901D48006840F000701B49086008468C
:101D4000006800F00070009000BF00BF00BF0020DE
:101D5000009015481038006840F002001249103910
:101D600008600846006800F00200009000BF00BF55
:101D70006020019002200290002003900320049034
:101D80000920059001A90B4800F0E4F90022052183
:101D9000402000F0D3FE402000F0C2FE06B010BD8F
:101DA000006400400C00002040380240000C02405B
:101DB00000680040000402407047000010B58AB07F
:101DC000044601AB03AA00212046FFF7C0FC40F205
:101DD00003220398811A904215D009DC05285CD0B3
:101DE00006285BD0A0F2012058B1012863D109E098
:101DF000012909D0022908D0032907D004295AD182
:101E000005E000BF00BF00BF00BF00BF00BF0398D8
:101E1000401E2D4908700846007800EB80002B49D1
:101E200031F8100000B22849097801EB8101274AF6
:101E300002EB410108819DF805009DF8041040EA7D
:101E400001202149097801EB810122F811009DF858
:101E500007009DF8061040EA012000B21A490978EF
:101E600001EB810102EB410148809DF809009DF8DA
:101E7000081040EA012000B21349097801EB810102
:101E800002EB410188809DF80A000F49097801EBB7
:101E9000810102EB410188710EE000BF0398401FF1
:101EA0000B4908700B490A4A127801EB421001A94C
:101EB00006F0BAFF00E000BF00BF02210648FFF7AE
:101EC0001CFB0AB010BD000098000020FC0A002096
:101ED00099000020440B00200C0800207047704738
:101EE000704770B5044694F82000012805D0606A58
:101EF00040F400206062012070BD022084F82000C0
:101F00002068016821F00101016000F041FA0546F6
:101F10002068406810F0010F12D000F039FA401B21
:101F20000A2808D9606A40F400306062052084F80D
:101F30002000012070BD2068406810F0010FECD136
:101F40000020606270BD70477047704770477047EF
:101F5000704770472DE9F041044600F019FA054634
:101F6000DCB1022084F83500002684F83460206853
:101F7000016821F0010101602068006810F0010F84
:101F800013D000F005FA401B052809D92020606510
:101F9000032084F83500BDE8F0810120BDE8F08120
:101FA0002068006810F0010FEBD121680868234A0F
:101FB0001040A3686268D4F810C01A43E36843EA8B
:101FC0000C031A4363691A43A3691A43E3691A436A
:101FD000236A1A431043626A042A03D1236BE26A1C
:101FE0001A43104308602068406920F00701606AC6
:101FF00040EA0105012704280ED1A06A0543E06AE2
:1020000050B12046FFF724FA30B14020606584F8D3
:1020100035700120BDE8F081206845612046FFF75A
:10202000FDF994F85C103F2202FA01F181606665C7
:1020300084F835700020BDE8F08100003F8010F08A
:1020400070B5044600F0A4F90546B4F1FF3F02D094
:1020500004480078044400F09BF9401BA042FAD3E6
:1020600070BD0000DC00002010B50446102C12D119
:102070002948007840F00100274908702748007877
:1020800040F001002549087025480078002841D01B
:1020900006F002FF3EE0202C0BD12248007840F0F1
:1020A0000100204908701E48007898B306F0F4FE3D
:1020B00030E0082C19D11C48007840F001001A4982
:1020C00008700846007800F00100087010B3084658
:1020D000007820F0010008700846007840F0020007
:1020E0000870124807F0C4F814E0012C12D108F06F
:1020F00039FE01280ED00E490E48006808F050F94C
:102100000B48006830B120070B490860BFF34F8FC0
:10211000BFF36F8F10BD00004A0000204B0000206D
:102120004D000020490000204C0000208C0A0020B7
:10213000500000202400002004ED00E010B5044908
:102140000A68024202D00860FFF78EFF10BD00004F
:10215000143C01402DE9F84F0022DFF818A2DFF807
:1021600010924FF0010E03274FF00F08AAF1040B55
:102170000EFA02FC0B6803EA0C0363457DD10C796F
:1021800004F00304012C01D0022C14D18568540002
:1021900007FA04F6B543CE6806FA04F42C438460CB
:1021A000446824EA0C0C0C79C4F30014944044EA0B
:1021B0000C0CC0F804C0D1F804C037EA0C0C0CD0E9
:1021C000C4684FEA420C07FA0CF5AC438D6805FA77
:1021D0000CFC4CEA040CC0F80CC091F804C00CF0E4
:1021E000030CBCF1020F12D14FEAD20C00EB8C04AD
:1021F000256A4FEA427C4FEADC6C08FA0CF6B543DC
:102200000E6906FA0CFC4CEA050CC4F820C0046800
:102210004FEA420C07FA0CF5AC430D7905F00305C3
:1022200005FA0CFC4CEA040CC0F800C0D1F804C05C
:102230001CF4403F7DD0D9F800C04CF4804CC9F864
:1022400000C0D9F800C00CF4804CCDF800C022F0DA
:10225000030C0CF1804505F59835D5F808C89407AE
:10226000240F08FA04F62CEA0606A0F1804CBCF50F
:10227000003C64D0A0F1804C00E05AE0BCF5013C89
:1022800060D0A0F1804CBCF5023C5ED0A0F1804C47
:10229000BCF5033C5CD0A0F1804CBCF5043C5AD0AA
:1022A000A0F1804CBCF5053C58D0A0F1804CBCF5A9
:1022B000063C56D0A0F1804CBCF5073C54D04FF002
:1022C000080C0CFA04FC4CEA060CC5F808C8DAF84D
:1022D00000C02CEA030C4C6814F4801F01D04CEAB7
:1022E000030CCAF800C0244CD4F800C02CEA030C3C
:1022F0004D6815F4001F01D04CEA030CC4F800C06F
:10230000DBF800C02CEA030C4C6814F4003F01D049
:102310004CEA030CCBF800C0184CD4F800C02CEAEF
:10232000030C4D6815F4803F01D04CEA030CC4F84F
:1023300000C0521C102AFFF41BAFBDE8F88F4FF00D
:10234000000CBEE74FF0010CBBE74FF0020CB8E702
:102350004FF0030CB5E74FF0040CB2E74FF0050C5B
:10236000AFE74FF0060CACE74FF0070CA9E7000011
:1023700044380240083C01400C3C0140003C014014
:10238000002A01D081617047090481617047000013
:102390000148806870470000DC00002070B50446EA
:1023A000002C04D094F83D00002510B106E0012077
:1023B00070BD84F83C50204600F0E0FA242084F8F8
:1023C0003D002068016821F001010160206801687A
:1023D00041F4004101602068016821F4004101607E
:1023E00000F0B6FC544B6168994203D853498842C7
:1023F00003D304E05249884201D2012070BD514903
:10240000B0FBF1F12268D2F804C02CF03F0C4CEA8A
:10241000010CC2F804C062689A4201D84A1C07E065
:102420004FF4967251434FF47A72B1FBF2F14A1CA9
:102430002168D1F820C02CF03F0C42EA0C020A625D
:102440006168994210D84900401EB0FBF1F2521C5D
:10245000C2F30B02042A01D2042026E0B0FBF1F003
:10246000401CC0F30B0020E0A268002A50D001EB12
:10247000C10303EB0113A0F1010CBCFBF3F35B1CE4
:1024800043F480431B051B0D4AD0002A4AD001EBC0
:10249000C10202EB0111401EB0FBF1F0401CC0F381
:1024A0000B0040F4804040F400402168CA6922F0EB
:1024B000FF0222F44F421043C861216AE0690143E0
:1024C0002068026822F0C00211430160E1682069BF
:1024D00001432068826822F0FF0222F40342114384
:1024E0008160A169606901432068C26822F0FF022F
:1024F0001143C1602068016841F001010160256459
:10250000202084F83D00256384F83E50002070BDF3
:1025100001EB4103A0F1010CBCFBF3F35B1CB1E741
:102520000120C2E701EB4101401EB0FBF1F0401C6D
:10253000C0F30B00B7E70000A086010080841E00F6
:1025400000093D0040420F002DE9FF4F83B00446D3
:102550008A469346DDF84490DDF84080129EFFF7EE
:1025600017FF054694F83D00202803D007B002204D
:10257000BDE8F08F19230122A0492046009501F003
:10258000C7FC18B107B00220BDE8F08F94F83C00FA
:10259000012808D0012084F83C002068016811F06F
:1025A000010F04D007E007B00220BDE8F08F0168FA
:1025B00041F0010101602068016821F400610160BF
:1025C000222084F83D00402084F83E000027276444
:1025D000C4F82480A4F82A90608D20858848E062A1
:1025E000019500965A4651462046069B01F050FB45
:1025F00018B107B00120BDE8F08F208D10B301287D
:1026000029D0022835D02068416980690290208D48
:10261000002800F0E880DFF8EC81208D032800F22C
:10262000B780012834D002284AD0334600224146E0
:102630002046009501F06CFC00286CD007B001200A
:10264000BDE8F08F2068416981690291016841F419
:1026500000710160DBE72068016821F4806101609E
:102660002068416981690291016841F4007101604B
:10267000CDE72068016821F480610160206801686D
:1026800041F4006101602068416980690290BEE701
:102690002A463146204601F0FCFC18B107B0012063
:1026A000BDE8F08F20680069616A0870606A401CAC
:1026B0006062208D401E2085608D401E60858EE00A
:1026C0003346002241462046009501F021FC18B116
:1026D00007B00120BDE8F08F2068016841F4007167
:1026E000016020680069616A0870606A401C60626D
:1026F000218D491E2185618D491E618521680969E9
:102700000170606A401C6062208D401E2085608DD3
:10271000401E608563E02068016821F480610160EB
:1027200020680069616A0870606A401C6062208DE0
:10273000401E2085608D401E608533460022414644
:102740002046009501F0E4FB18B107B00120BDE878
:10275000F08F2068016841F4007101602068006911
:10276000616A0870606A401C6062218D491E218583
:10277000618D491E6185216809690170606A401C8C
:102780006062208D401E2085608D401E608526E0A1
:102790002A463146204601F07CFC18B107B00120E2
:1027A000BDE8F08F20680069616A0870606A401CAB
:1027B0006062218D491E2185618D491E61852268D7
:1027C000516911F0040F0AD011690170606A401C50
:1027D0006062208D401E2085608D401E6085208DAA
:1027E00000287FF41AAF202084F83D0084F83E7062
:1027F00084F83C7007B00020BDE8F08F02001000A4
:102800000000FFFF040001002DE9FF4F83B00446E4
:102810008A469346DDF84490DDF84080129EFFF72B
:10282000B7FD054694F83D00202803D007B00220EC
:10283000BDE8F08F192301224E492046009501F092
:1028400067FB18B107B00220BDE8F08F94F83C0098
:10285000012808D0012084F83C002068016811F0AC
:10286000010F04D007E007B00220BDE8F08F016837
:1028700041F0010101602068016821F400610160FC
:10288000212084F83D00402084F83E000027276482
:10289000C4F82480A4F82A90608D20853648E06230
:1028A000019500965A4651462046069B01F09AFA39
:1028B00018B107B00120BDE8F08F208D002836D078
:1028C0002A463146204601F022FC58B1206C0428EB
:1028D00004D12068016841F40071016007B0012053
:1028E000BDE8F08F606A216800780861606A00F1D5
:1028F000010CC4F824C0208D401E80B22085618D5B
:10290000491E61852368596911F0040F0CD058B134
:102910009CF800001861606A401C6062208D401EB7
:102920002085608D401E6085208D0028C8D12A46F4
:102930003146204601F0BEFA58B1206C042804D17B
:102940002068016841F40071016007B00120BDE812
:10295000F08F2068016841F400710160202084F844
:102960003D0084F83E7084F83C7007B00020BDE85C
:10297000F08F0000020010000000FFFF10B586B0CD
:102980000446142101A8FDF704FE2A492068884264
:102990004DD100BF002000902748006840F004009F
:1029A000254908600846006800F00400009000BF58
:1029B00000BF00BF002000900846006840F0010002
:1029C00008600846006800F00100009000BF00BFEA
:1029D00048150190122002900120039003200490DA
:1029E0000420059001A91548FFF7B4FB4FF480704F
:1029F00001901220029001200390032004900420F3
:102A0000059001A90E48FFF7A5FB00BF002000902C
:102A100009481030006840F4000007491031086090
:102A20000846006800F40000009000BF00BF06B038
:102A300010BD0000005C0040303802400008024039
:102A400000000240024881680278114481607047AA
:102A5000DC00002010B50B48016841F400710160F2
:102A6000016841F480610160016841F48071016096
:102A7000032000F097F80F2000F006F800F026F889
:102A8000002010BD003C024070B504460D4D4FF4CF
:102A90007A712878B1FBF0F00B490968B1FBF0F0CE
:102AA00000F0E6FD08B1012070BD102C07D2002215
:102AB0002146501E00F042F86C60002070BD0120DD
:102AC00070BD0000DC0000201000002008B500BF31
:102AD000002000901148006840F480400F490860D1
:102AE0000846006800F48040009000BF00BF00BFAF
:102AF00000200090081F006840F08050091F086007
:102B00000846006800F08050009000BF00BF00221F
:102B10000F21901E00F012F808BD0000443802405A
:102B200000280ADB00F01F01012202FA01F140092E
:102B3000800000F1E020C0F80011704710B4184B7D
:102B40001B68C3F30223C3F1070CBCF1040F01D9C6
:102B50004FF0040C1C1D072C01D2002300E0DB1EEB
:102B6000012404FA0CFCACF1010C0CEA01019940BF
:102B700004FA03F35B1E1A401143002806DB00F140
:102B8000E020090180F8001410BC704700F00F002D
:102B900000F1E020090180F8141D10BC704700000E
:102BA0000CED00E000F00700064A11684FF6FF0345
:102BB000194041EA002040F0FD7040F08060106054
:102BC000704700000CED00E02DE9F04704460D468B
:102BD000002C13D0DFF85491D9F80000EFB200F0C8
:102BE0000700A8420DD289F80070D9F8000000F063
:102BF0000700A84205D00120BDE8F0870120BDE80C
:102C0000F08720684A4E10F0020F14D010F0040F25
:102C100003D0306840F4E0503060207810F0080FA6
:102C200003D0306840F4604030603068A16820F024
:102C3000F00008433060207810F0010F3ED060684B
:102C40003C49012808D002280DD003280BD0096880
:102C500011F0020F28D00AE0096811F4003F06D1F4
:102C60000120BDE8F087096811F0007F19D03168B4
:102C700021F0030108433060FFF78AFB804630688B
:102C8000616800F00C00B0EB810F17D041F2883A78
:102C9000FFF77EFBA0EB0800504508D90320BDE8F4
:102CA000F0870120BDE8F0870120BDE8F08730689B
:102CB000616800F00C00B0EB810FE9D1D9F8000099
:102CC00000F00700A8420AD989F80070D9F800007E
:102CD00000F00700A84202D00120BDE8F08720786C
:102CE00010F0040F05D03068E16820F4E05008438C
:102CF0003060207810F0080F06D03068216920F489
:102D0000604040EAC100306000F032F831680A4AA1
:102D1000C1F30311515CC8400849086008480068C5
:102D2000FFF7B2FE0020BDE8F0870000003C024043
:102D300008380240003802400CB50008100000209E
:102D4000E0000020014800687047000010000020EB
:102D500000B5FFF7F7FF04490968044AC1F382216F
:102D6000515CC84000BD0000083802401CB5000896
:102D700010B51748006810F00C01164816D0164B15
:102D8000042912D0082911D1144C216801F03F0206
:102D9000216811F4800F0AD02068C0F38810A0FBCE
:102DA00003010023FDF7E0FA09E0184610BD216891
:102DB0000023C1F38811A1FB0001FDF7D5FA2168BA
:102DC000C1F30141491C4900B0FBF1F010BD000006
:102DD000083802400024F400001BB7000438024009
:102DE0002DE9F84F0446002C12D02078FB4E10F04D
:102DF000010FA6F1040563D0301D016801F00C013C
:102E000004290CD0006800F00C00082803D010E062
:102E10000120BDE8F88F306810F4800F09D02868D1
:102E200010F4003F4CD06068002849D10120BDE873
:102E3000F88F6068B0F5803F14D0B0F5A02F16D0A1
:102E4000286820F480302860286820F480202860DA
:102E5000606810B3FFF79CFA0746286810F4003F3B
:102E60000ED02DE0286840F480302860F0E7286814
:102E700040F480202860286840F480302860E7E72C
:102E8000FFF786FAC01B642802D90320BDE8F88F3B
:102E9000286810F4003FF3D012E0FFF779FA0746F4
:102EA000286810F4003F0BD0FFF772FAC01B6428AB
:102EB00002D90320BDE8F88F286810F4003FF3D151
:102EC0002078C74F10F0020F4FF0000957D0C548C7
:102ED000016811F00C0F14D0006800F00C000828F5
:102EE00003D1306810F4800F0BD0E06880B301206C
:102EF0003860FFF74DFA8046286810F0020F12D0B4
:102F00001EE0286810F0020F05D0E068012802D00A
:102F10000120BDE8F88F2868216920F0F80040EA18
:102F2000C10028602BE0FFF733FAA0EB080002286D
:102F300002D90320BDE8F88F286810F0020FF2D004
:102F40002868216920F0F80040EAC100286016E0F6
:102F5000FFE7C7F80090FFF71BFA8046286810F0DB
:102F6000020F0CD0FFF714FAA0EB0800022802D9D8
:102F70000320BDE8F88F286810F0020FF2D1207806
:102F800010F0080F35D09848DFF860A26169C1B130
:102F900001210160FFF7FCF98046DAF8000010F02B
:102FA000020F26D1FFF7F4F9A0EB0800022802D99E
:102FB0000320BDE8F88FDAF8000010F0020FF1D01E
:102FC00017E0C0F80090FFF7E3F98046DAF8000058
:102FD00010F0020F0DD0FFF7DBF9A0EB080002287C
:102FE00002D90320BDE8F88FDAF8000010F0020FD4
:102FF000F1D1207810F0040F71D04FF000087C4818
:10300000006810F0805F0AD17948016841F0805172
:103010000160006800F0805000904FF00108DFF878
:10302000D4B1DBF8000010F4807F1BD1DBF8000086
:1030300040F48070CBF80000FFF7AAF98246DBF875
:10304000000010F4807F0DD1FFF7A2F9A0EB0A0079
:10305000022802D90320BDE8F88FDBF8000010F445
:10306000807FF1D0A068DFF890B1012818D0052842
:103070001DD0DBF8000020F00100CBF80000DBF8E9
:10308000000020F00400CBF80000A06840B3FFF778
:103090007FF98246DBF8000010F0020F14D03EE00A
:1030A000DBF8000040F00100CBF80000EDE7DBF8B2
:1030B000000040F00400CBF80000DBF8000040F016
:1030C0000100CBF80000E0E7FFF762F9A0EB0A018E
:1030D00041F28830814204D90320BDE8F88F26E010
:1030E00005E0DBF8000010F0020FEDD017E0FFF76D
:1030F0004FF98246DBF8000010F0020F0FD0FFF707
:1031000047F9A0EB0A0141F28830814202D903203D
:10311000BDE8F88FDBF8000010F0020FEFD1B8F136
:10312000010F04D13248016821F080510160A0698B
:10313000F0B32C4909684FF0FF3801F00C01082961
:1031400066D0022810D0C7F86090FFF721F9044636
:10315000286810F0007F2BD0FFF71AF9001B022817
:1031600051D90320BDE8F88FC7F86090FFF710F938
:103170008146286810F0007F0CD0FFF709F9A0EB1A
:103180000900022802D90320BDE8F88F286810F052
:10319000007FF2D1216AE069A26A0843616A08EB04
:1031A0005202890141EA0241084394F82C1000E0E0
:1031B00055E040EA0160306001203866FFF7E8F82A
:1031C0000446286810F0007F49D1FFF7E1F8001BA2
:1031D000022813D90320BDE8F88F0000043802400C
:1031E0000000474208380240800E474274380240CF
:1031F000403802400070004070380240286810F0EB
:10320000007FE2D02BE0286810F0007FA4D126E0F8
:10321000012822D03068E26900F4800191421AD17D
:10322000226A00F03F01914215D147F6C071626AEF
:103230000140B1EB821F0ED1A26A00F4403108EBCD
:103240005202B1EB024F06D194F82C1000F07060DE
:10325000B0EB016F03D00120BDE70120BBE70020E8
:10326000B9E770B50446002C09D0606A002540B16A
:1032700025616561A56294F8510040B10CE0012020
:1032800070BD6068B0F5827FF4D0E561F2E784F844
:103290005050204600F044F8022084F85100206885
:1032A000016821F040010160A088218900F482704A
:1032B00001F404410843A18901F400610843217C21
:1032C00001F002010843217D01F001010843218B37
:1032D00001F400710843217F01F03801084394F89C
:1032E000201001F080010843218D01F400510843B2
:1032F00021680860A169042000EA114094F82410B4
:1033000001F010010143206841602068C16921F487
:103310000061C1616565012084F85100002070BD25
:1033200010B586B00446142101A8FDF732F94B49C7
:10333000206888427ED100BF002000904848006885
:1033400040F48050464908600846006800F4805008
:10335000009000BF00BF00BF00200090404814381C
:10336000006840F002003E491439086008460068D1
:1033700000F00200009000BF00BF00BF00200090DE
:103380000846006840F0010008600846006800F048
:103390000100009000BF00BF1820019002200290A1
:1033A00001200390032004900520059001A92D48D9
:1033B000FEF7D0FE802001900220029001200390B1
:1033C000032004900520059001A92748FEF7C2FEBE
:1033D0002648274908604FF0C06048600021244813
:1033E0008160C1604FF480610161002141618161B0
:1033F000C1614FF44031016200214162FEF7AAFD34
:1034000008B1FEF779F800BF1948E064846300BF93
:1034100016481830174908604FF0C06048604021D6
:10342000144881600021C1604FF480610161002176
:10343000416100E010E08161C1614FF4003101623F
:1034400000214162FEF786FD08B1FEF755F800BF86
:103450000848A064846300BF06B010BD003001407E
:103460004438024000040240000002404064024030
:1034700008090020680900202DE9F84F04460A9E3B
:103480008A4693461F4601254FF0000894F85000E5
:1034900001280ED0012084F85000FEF779FF814604
:1034A00094F85100616801280ED0B1F5827F07D1F0
:1034B00002E00220BDE8F88FA16809B9042803D012
:1034C0004FF0020800F0CBB8BAF1000F1DD0BBF1ED
:1034D000000F1AD0380018D094F85100042802D0F8
:1034E000052084F8510000206065C4F838B0E787F3
:1034F000A787C4F830A0E786A786206460642068A8
:10350000016811F0400F03D006E04FF00108A6E07B
:10351000016841F040010160E068B0F5006F05D03E
:103520006068002848D0012F46D07EE0606808B16E
:10353000012F3AD1206B21680088C860206B801C65
:103540002063E08E401EE0862FE02068816811F045
:10355000020F0DD0E18E59B1012D09D1216B0988DF
:10356000C160206B801C2063E08E401EE086002539
:103570002068816811F0010F0BD0E18F49B1C0685C
:10358000A16B0880A06B801CA063E08F401EE087C9
:103590000125FEF7FDFEA0EB0900B04205D3B6F110
:1035A000FF3F02D04FF0030859E0E08E0028CCD155
:1035B000E08F0028C9D13EE0206B216800780873B5
:1035C000206B401C2063E08E401EE0862DE02068CA
:1035D000816811F0020F0DD0E18E59B1012D09D192
:1035E000216B09780173206B401C2063E08E401E24
:1035F000E08600252068816811F0010F0BD0E18F73
:1036000049B1C068A16B0870A06B401CA063E08F3B
:10361000401EE0870125FEF7BBFEA0EB0900B0428B
:1036200002D3B6F1FF3F11D186B1E08E0028CED192
:10363000E08F0028CBD14A463146204604F0D8FA24
:1036400038B14FF001082020606508E04FF0030812
:1036500005E0A06818B92068C16880680090012062
:1036600084F85100002084F850004046BDE8F88FEF
:10367000401EB0F1807F01D3012070474FF0E02160
:103680004861044AF020107000208861072008611A
:103690000020704723ED00E030B490F83C20012A70
:1036A00044D0012480F83C40022280F83D2002688A
:1036B000D2F804C093682CF0700C0D6845EA0C0C2D
:1036C000C2F804C00268A2F1804CBCF5803C20D056
:1036D000B2F1804F1DD0A2F1804CBCF5806C18D0A7
:1036E000A2F1804CBCF5006C13D0A2F1804CBCF56B
:1036F000406C0ED0A2F1804CBCF5823C09D0A2F106
:10370000804CBCF5A03C04D0A2F1804CBCF5C05C60
:1037100004D123F0800349681943916080F83D404B
:10372000002180F83C1030BC0020704730BC0220E3
:10373000704710B50446002C03D094F83D0010B13A
:1037400007E0012010BD002084F83C00204600F076
:103750001FF8022084F83D00211D206804F07CFB46
:10376000012084F8460084F83E0084F83F0084F885
:10377000400084F8410084F8420084F8430084F853
:10378000440084F8450084F83D00002010BD00008E
:1037900008B5154A016891420FD100BF0021009180
:1037A0001249096841F00801104A11601146096880
:1037B00001F00801009100BF15E00D4A0168914237
:1037C00011D100BF002100910849091D096841F489
:1037D0000031064A121D11601146096801F40031DA
:1037E000009100BF00BF08BD000C004040380240FF
:1037F0000044014090F83D10012901D0012070479C
:10380000022180F83D100068A0F18041B1F58031BF
:1038100026D0B0F1804F23D0A0F18041B1F5806176
:103820001ED0A0F18041B1F5006119D0A0F1804116
:10383000B1F5406114D0A0F18041B1F582310FD0D3
:10384000A0F18041B1F5A0310AD0A0F18041B1F5DD
:10385000C05105D0016841F00101016000207047AE
:10386000816801F007010629F8D0016841F00101E3
:103870000160F3E770B50446002594F83C00012888
:1038800018D0012684F83C60022084F83D002068AE
:10389000826822F0770222F47F4282600868502812
:1038A00039D00EDC202854D006DC002851D0102856
:1038B00011D14EE0022070BD30284AD040280AD1F4
:1038C0003DE0602831D070280DD0B0F5805F03D086
:1038D000B0F5005F13D0012584F83D60002084F826
:1038E0003C00284670BDCB684A688968206804F0AF
:1038F00028FB2068816841F077018160ECE7CB68A4
:103900004A688968206804F01CFB2068816841F4DB
:1039100080418160E0E7CA684968206804F000FCE3
:103920005021206804F018FBD6E7CA68496820686F
:1039300004F009FC6021206804F00EFBCCE7CA68A3
:103940004968206804F0ECFB4021206804F004FB87
:10395000C2E722680146104604F0FEFABCE7000008
:1039600010B586B00446142101A8FCF712FE2E49BA
:10397000206888422DD100BF002000902B480068AD
:1039800040F08000294908600846006800F0800087
:10399000009000BF00BF4FF4E05001900220029061
:1039A0000120039002200490059001A92048FEF711
:1039B000D1FB2048FFF71EFF00211E4800F0DEF873
:1039C00004211C4800F0DAF808211A4800F0D6F863
:1039D00028E019492068884224D100BF00200090C7
:1039E0001248006840F0200010490860084600684E
:1039F00000F02000009000BF00BF40200190022096
:103A0000029001200390022004900320059001A958
:103A10000A48FEF79FFB0A48FFF7ECFE0021084822
:103A200000F0ACF806B010BD000C00403038024089
:103A3000001C0240C809002000440140001402405C
:103A4000100A002070B504460D46002694F83C008C
:103A500001280FD0012084F83C006AB1042A1FD04D
:103A6000082A32D00C2A44D00126002084F83C00D9
:103A7000304670BD022070BD2946206804F074FAFB
:103A80002068816941F0080181612068816921F025
:103A900004018161206881692A6911438161E4E739
:103AA0002946206804F098FA2068816941F4006191
:103AB00081612068816921F4806181612068816968
:103AC0002A6941EA02218161CFE72946206804F092
:103AD000BFFA2068C16941F00801C1612068C1696D
:103AE00021F00401C1612068C1692A691143C161E3
:103AF000BBE72946206804F0E7FA2068C16941F471
:103B00000061C1612068C16921F48061C1612068E0
:103B1000C1692A6941EA0221C161A6E710B50446DC
:103B2000002C03D094F83D0010B107E0012010BD37
:103B3000002084F83C00204600F01EF8022084F8A3
:103B40003D00211D206804F087F9012084F846001B
:103B500084F83E0084F83F0084F8400084F8410077
:103B600084F8420084F8430084F8440084F8450057
:103B700084F83D00002010BD7047000010B50446D9
:103B8000002909D004290AD008290BD094F8410053
:103B900001280AD0012010BD94F83E00F8E794F8FF
:103BA0003F00F5E794F84000F2E70220D9B304297A
:103BB00047D0082948D084F841000122206804F049
:103BC000B1F9234A20682349904201D0884203D1A9
:103BD000436C43F4004343642068904224D0B0F126
:103BE000804F21D0A0F18042B2F580621CD0A0F1BC
:103BF0008042B2F5006217D0A0F18042B2F5406277
:103C000012D0884210D0A0F18041B1F5A0310BD084
:103C1000A0F18041B1F5C05106D0016841F0010129
:103C20000160002010BD09E0816801F0070106294C
:103C3000F7D0016841F001010160F2E784F83E002D
:103C4000BBE784F83F00B8E784F84000B5E7000020
:103C5000000001400004014000BFFEE701684A691E
:103C600012F4806F11D06FF480624A610021016309
:103C7000202280F83D2080F83E10026C42F00402C1
:103C8000026480F83C10012070470020704700005B
:103C90002DE9F84F0446DDF828A00B9D0F4690460D
:103CA0001E462068016841F4806101602068016857
:103CB00041F480710160534600224FF0011120460B
:103CC000009500F025F94FF4007948B120680068AC
:103CD00010F4807F01D0C4F840900320BDE8F88F35
:103CE000216807F0FE000861DFF8F4B02B46524669
:103CF0005946204600F066F910B10120BDE8F88F62
:103D000020684169806900902A465146204600F0AB
:103D1000FEF950B1206C042804D12068016841F4F8
:103D2000007101600120BDE8F88F304608F0FF0601
:103D300001280DD021684FEA182008612A46514613
:103D4000204600F0E4F970B1206C042803D007E0AD
:103D50002068066109E02068016841F40071016093
:103D60000120BDE8F88F206806612A4651462046AA
:103D700000F0CDF950B1206C042804D1206801680E
:103D800041F4007101600120BDE8F88F20680168EE
:103D900041F480710160534600224FF0011120462A
:103DA000009500F0B5F848B12068006810F4807FF5
:103DB00001D0C4F840900320BDE8F88F2168F8B224
:103DC00040F0010008612B4652465946204600F05B
:103DD000F9F810B10120BDE8F88F0020BDE8F88F98
:103DE000020001002DE9F8430446DDF82090099F08
:103DF0000D46164698462068016841F480710160BE
:103E00004B4600224FF001112046009700F080F849
:103E100050B12068006810F4807F02D04FF4007029
:103E200020640320BDE8F883216805F0FE000861E6
:103E30003B464A461E49204600F0C4F810B1012016
:103E4000BDE8F88320684169806900903A46494698
:103E5000204600F05CF950B1206C042804D12068A1
:103E6000016841F4007101600120BDE8F883F5B2FA
:103E7000B8F1010F0CD02168300A08613A46494672
:103E8000204600F044F970B1206C042803D007E00C
:103E90002068056109E02068016841F40071016053
:103EA0000120BDE8F883206805610020BDE8F883A3
:103EB0000200010070B504460D46164620684069B0
:103EC00010F0040F13D12046FFF7C8FE08B10120FF
:103ED00070BDB5F1FF3F05D0FEF75AFA801BA8422E
:103EE00007D835B12068406910F0040FEBD00020EE
:103EF00070BD00202063202184F83D1084F83E002E
:103F0000216C41F02001216484F83C00012070BD47
:103F10002DE9F0470446DDF820900D4617461E4671
:103F2000C5F307482068B8F1010F22D0806925EA5F
:103F300000000004000C26D00020B84216D1B6F1D3
:103F4000FF3F06D0FEF724FAA0EB0900B0421CD8D0
:103F5000DEB1B8F1010F28D02068806925EA0000A1
:103F60000004000C2CD00020B842E8D00020BDE8AE
:103F7000F087406925EA00000004000C01D0002011
:103F8000DBE70120D9E70120D7E7002020632021CB
:103F900084F83D1084F83E00216C41F0200121643A
:103FA00084F83C000120BDE8F0872068406925EADC
:103FB00000000004000C01D00020D5E70120D3E769
:103FC0000120D1E72DE9F04704460D4616461F466D
:103FD000C5F307482068B8F1010F26D0806925EAAB
:103FE00000000004000C3AD04FF000094FF0200A06
:103FF0002068406910F4806F1ED02068016841F489
:104000000071016021686FF480604861C4F83090ED
:1040100084F83DA084F83E90206C40F004002064B9
:1040200084F83C900120BDE8F087406925EA000053
:104030000004000C13D0D7E7B6F1FF3F05D0FEF720
:10404000A7F9C01BB0420DD866B1B8F1010F18D066
:104050002068806925EA00000004000CC8D1002017
:10406000BDE8F087C4F8309084F83DA084F83E9015
:10407000206C40F02000206484F83C900120BDE8D2
:10408000F0872068406925EA00000004000CAFD1E9
:10409000E5E72DE9F04104460D46164620684069E3
:1040A00010F0400F22D100274FF02008206840690F
:1040B00010F0100F0FD021686FF0100048612763D7
:1040C00084F83D8084F83E70206C206484F83C7055
:1040D0000120BDE8F081FEF75BF9801BA84208D8FB
:1040E0003DB12068406910F0400FDFD00020BDE8EE
:1040F000F081276384F83D8084F83E70206C40F0A6
:104100002000206484F83C700120BDE8F08170B587
:1041100004460D4616462068406910F0800F13D102
:104120002046FFF79BFD08B1012070BDB5F1FF3FB0
:1041300005D0FEF72DF9801BA84207D835B12068BD
:10414000406910F0800FEBD0002070BD002020638C
:10415000202184F83D1084F83E00216C41F02001BC
:10416000216484F83C00012070BD0000072005F0A8
:10417000BFF902E0642005F0BBF9FCF79DFB0028C5
:10418000F8D102E0642005F0B3F905F027F8002823
:10419000F8D1404AA2F10C01101DFCF7A7FBDFED9E
:1041A0003E0A9FED3E0A3E4A00213E4801F054F887
:1041B0003D4A38490C393D48FCF780FA002005F0AB
:1041C000D3F9044606F088FD3949086010213948C2
:1041D000C161FFF746F808B1FDF78EF908223649AC
:1041E000364803F045FC01203549087051E000BF16
:1041F0004FF0FF31012005F029FF0128F8D13148A7
:10420000007800F0080058B12E48007820F008002F
:104210002C4908701F49091D2748401CFCF718FB52
:104220002948007800F0040060B12748007820F0A9
:10423000040025490870174A1032A2F11C012348D6
:10424000FCF7B0FA2248007800F0040088B120485A
:10425000007820F004001E4908700E491D48FCF744
:1042600033FC0C481038D0ED040AB0EE600A04F0BC
:10427000EDFE0D4B074A0C3A02F110019FED160AB4
:104280000A48FCF72FFA154B1A1F111F074804F0B4
:104290005DFDACE7740A00200080894500A08C45D4
:1042A00024B50008980A00208C0A0020E00A0020AB
:1042B00024000020B008002028000020300000204A
:1042C0004D000020490000204A0000205A0A00202A
:1042D0004B000020430000206F12833AF80A0020B0
:1042E00010B50E480E4908600320486000210C48B4
:1042F0008160C1604FF4102101614FF400114161F0
:104300000021017641768176C17601774177FDF70C
:10431000EEFB08B1FDF7F0F810BD000000640040AE
:104320000C08002010B50E480E49086003204860B4
:1043300000210C488160C1604FF4102101614FF4ED
:10434000001141610021017641768176C1760177C5
:104350004177FDF7CCFB08B1FDF7CEF810BD0000AA
:10436000006800403408002008B500BF002000901D
:104370000E48006840F480000C4908600846006858
:1043800000F48000009000BF00BF002205213A2009
:10439000FEF7D4FB3A20FEF7C3FB002205213B20A9
:1043A000FEF7CCFB3B20FEF7BBFB08BD30380240DC
:1043B00000B595B01C2212490EA8FCF7B0F80021F8
:1043C0000EA805F0A2F80F4908601C220C491C3108
:1043D00007A8FCF7A4F8002107A805F096F80A49F9
:1043E00008601C22064938316846FCF798F800211D
:1043F000684605F08AF80549086015B000BD000060
:10440000B8B40008080000200000002004000020CC
:1044100000B587B0142102A8FCF7BBF800BF00204C
:1044200001906648006840F0020064490860084650
:10443000006800F00200019000BF00BF00BF002034
:1044400001900846006840F00100086008460068D6
:1044500000F00100019000BF00BF00BF00200190EC
:104460000846006840F0080008600846006800F050
:104470000800019000BF00BF00BF00200190084667
:10448000006840F0040008600846006800F004007E
:10449000019000BF00BF00BF0020019008460068E7
:1044A00040F0800008600846006800F0800001903D
:1044B00000BF00BF00BF002001900846006840F028
:1044C000400008600846006800F04000019000BF0E
:1044D00000BF00BF002001900846006840F02000A7
:1044E00008600846006800F02000019000BF00BF8F
:1044F000012240213248FDF743FF012210213148BB
:10450000FDF73EFF012211462F48FDF739FF4020FD
:104510000290012003900490059002A92848FDF71D
:1045200019FE092002904FF404100390012004901A
:1045300002A92348FDF70EFE1020029001200390EF
:1045400004900220059002A91E48FDF703FE3020CA
:1045500002904FF4041003900120049002A91B481C
:10456000FDF7F8FD012002900390049002200590D1
:1045700002A91548FDF7EEFD002206210846FEF7C8
:10458000DDFA0620FEF7CCFA002205210920FEF70D
:10459000D5FA0920FEF7C4FA002205210A20FEF709
:1045A000CDFA0A20FEF7BCFA002205211720FEF7FB
:1045B000C5FA1720FEF7B4FA07B000BD3038024044
:1045C00000180240000002400004024000080240BF
:1045D00010B50B480B4908600B484860002109489A
:1045E0008160C1604FF480410161002141618161BE
:1045F000C1610162FDF7D2FE08B1FCF77DFF10BD7D
:10460000005C00405C080020801A060010B50F48CE
:104610000F4908604FF48270486000210C488160A7
:10462000C16002210161012141614902816138219A
:10463000C16100210162416281620A21C162FEF70B
:1046400010FE08B1FCF758FF10BD0000003001401B
:10465000B008002000B587B01C216846FBF799FF21
:104660001548164908600020486000211348816001
:1046700041F28731C160002101618161FFF759F882
:1046800008B1FCF739FF0D48FFF748FA08B1FCF70D
:1046900033FF6020009000200190029004900022DF
:1046A00069460648FFF7CEF908B1FCF725FF034835
:1046B000FFF756F907B000BD00440140100A002082
:1046C00000B58DB0002009900A900B900C900790D7
:1046D00008901C216846FBF75CFF284828490860C1
:1046E000002048600021264881604FF6FF71C160BC
:1046F000002101618161FFF71CF808B1FCF7FCFEA5
:104700004FF48050099009A91D48FFF7B3F808B18C
:10471000FCF7F2FE1A48FFF701FA08B1FCF7ECFECD
:1047200000200790089007A91548FEF7B5FF08B1CB
:10473000FCF7E2FE602000900020019002900490BF
:10474000002269460E48FFF77DF908B1FCF7D4FE58
:10475000042269460A48FFF775F908B1FCF7CCFE58
:10476000082269460648FFF76DF908B1FCF7C4FE58
:104770000348FFF7F5F80DB000BD0000000C004045
:10478000C809002010B52DED108B98B00446B0EE8E
:1047900040AAF0EE60AAB0EE41BAF0EE61CAF0EEC7
:1047A00042BAB0EE62CAF0EE439AB0EE638AF0EE1F
:1047B000448AF5EEC09AF1EE10FA1CD1B5EEC08A2B
:1047C000F1EE10FA17D1F5EEC08AF1EE10FA12D11F
:1047D000F0EE4C2AB0EE6B2AF0EE6C1AB0EE4B1AEB
:1047E000F0EE6A0AB0EE4A0A204600F0A1FA18B0CC
:1047F000BDEC108B10BDF5EEC0CAF1EE10FA09D178
:10480000F5EEC0BAF1EE10FA04D1B5EEC0CAF1EE81
:1048100010FA7CD06CEEAC0A4BEEAB0A4CEE0C0AF4
:10482000B0EE600A04F064FCB0EE409A2CEE890A07
:10483000F0EE40CA2BEE890AF0EE40BA2CEE090ADF
:10484000B0EE40CA69EEA90A48EE080A48EEA80A86
:10485000B0EE600A04F04CFCB0EE409A29EE890AF2
:10486000F0EE409A28EE090AB0EE408A28EE890A56
:10487000F0EE408A94ED000A20EE000A8DED170A52
:1048800094ED000AD4ED010A20EE20EA94ED000A2E
:10489000D4ED020A20EE20DA94ED000AD4ED030AEA
:1048A00020EE200A8DED160A94ED010A20EE000A92
:1048B0008DED150A94ED010AD4ED020A20EE200ACE
:1048C0008DED140A94ED010AD4ED030A60EE20DAAE
:1048D00094ED020A60EE00EA94ED020AD4ED030AB8
:1048E00020EE20FA94ED030A60EE00FAB6EE000A1C
:1048F00030EE6E0A30EE6F0A20EE291A9DED140A92
:10490000DDED160A70EE600AB0EE410A00E060E1EB
:1049100008EE200A7DEE8D0A08EEA00AF0EE000AED
:1049200020EE200A8DED130A9DED140ADDED160A26
:1049300030EE200A60EE290A9DED150AB6EE001A47
:1049400031EE400A30EE6F1AB0EE600A08EE010A4E
:104950007FEE4E0A08EEA00AF0EE000A20EE200AD2
:104960008DED120A9DED130A60EE000A9DED120A0C
:1049700040EE000A10EE901A084606F021FDCDE93F
:1049800000019DED000B03F0F1FD8DED020B9DED9F
:10499000020B51EC100B06F0C1FB11903DEECD0A5D
:1049A00020EE290A7FEE0E0A08EE200ADDED150A38
:1049B000B6EE001A71EE600A70EEEE0A08EEA00A7A
:1049C000F0EE000A20EE200A8DED100A3DEECD0A31
:1049D0008DED0F0A3EEE0F0A8DED0E0A9DED170AC2
:1049E000F6EE000A30EE600A30EE2F0A8DED0D0A69
:1049F000B6EE000A30EE6E0A70EE6F0A9DED110AF7
:104A000020EE800A3DEECD1ADDED100A00EE810A9F
:104A10008DED0C0A9DED140ADDED160A70EE600AAC
:104A20009DED110A20EE800A3EEE0F1ADDED100A10
:104A300000EE810A8DED0B0A7DEE2D0A9DED110A27
:104A400020EE801A9DED150AF6EE000A30EEC00A3F
:104A500070EE6E1ADDED100AB0EE410A00EEA10A0A
:104A60008DED0A0A9DED0D0A6BEE800A9DED0E0A92
:104A70004CEE400A9DED0A0A28EE001A9DED0B0A45
:104A800008EEC01A30EE810A8DED090A9DED0F0A7D
:104A90006CEE000A9DED0D0A4CEEC00A9DED0C0A6D
:104AA00028EE801A9DED0A0A09EEC01A30EE810A3E
:104AB0008DED080A9DED0E0A6CEE800A9DED0F0A41
:104AC0004BEEC00A9DED0B0A29EE801A9DED0C0AF3
:104AD00008EE401A30EE810A8DED070A8C4890ED01
:104AE000000AB5EEC00AF1EE10FA44DDD0ED000A7E
:104AF0009DED090A60EE800A864890ED000A9FED60
:104B0000861A00EE810A80ED000A8148D0ED000A85
:104B10009DED080A60EE800A804890ED000A9FED46
:104B20007E1A00EE810A80ED000A7948D0ED000A75
:104B30009DED070A60EE800A794890ED000A9FED2E
:104B4000761A00EE810A80ED000A724890ED000AA4
:104B50003AEE000AB0EE40AA704890ED000A3AEE34
:104B6000800AF0EE40AA6E4890ED000A3BEE000A83
:104B7000B0EE40BA0EE09FED6B0A664880ED000A89
:104B80009FED680A654880ED000A9FED660A64485B
:104B900080ED000A644890ED001A9DED090AF0EEE0
:104BA0004A0A41EE000AB0EE60AA90ED001A9DEDAF
:104BB000080AF0EE6A0A41EE000AF0EE60AA90EDF3
:104BC000001A9DED070AF0EE4B0A41EE000AB0EE26
:104BD00060BA9FED560A2AEE000AB0EE40AA9FED99
:104BE000530A2AEE800AF0EE40AA9FED500A2BEEFF
:104BF000000AB0EE40BA94ED000A8DED060A94ED7D
:104C0000010A8DED050A94ED020A8DED040A9DED71
:104C1000050AB1EE400A60EE0A0A9DED040A40EE74
:104C20006A0A94ED030A40EE4B0A94ED000A30EE56
:104C3000800A84ED000A9DED060A60EE0A0A9DEDE9
:104C4000040A40EE0B0A94ED030A40EE6A0A94ED62
:104C5000010A30EE800A84ED010A9DED060A60EE3D
:104C60002A0A9DED050A40EE4B0A94ED030A40EE38
:104C70000A0A94ED020A30EE800A84ED020A9DEDE4
:104C8000060A20EE0B0ADDED050A00EEAA0ADDEDAC
:104C9000040A00EECA0AD4ED030A30EE200A84EDBD
:104CA000030AD4ED000A60EEA00A94ED011AD4EDD7
:104CB000011A41EE210A94ED021AD4ED021A41EED6
:104CC000210A94ED031AD4ED031A41EE210AB0EE45
:104CD000600A04F00DFAB0EE409A94ED000A20EE5E
:104CE000090A84ED000A94ED010A20EE090A84ED18
:104CF000010A94ED020A20EE090A84ED020A94EDFD
:104D0000030A20EE090A84ED030A00BF6FE50000E4
:104D1000A0000020A40000206F12833AA800002009
:104D2000AC000020000000009C0000206F12033A3D
:104D300000B52DED068B0246B0EE403AF0EE603A3B
:104D4000B0EE414AF0EE615AF0EE424AB0EE625ADD
:104D5000F5EEC05AF1EE10FA09D1F5EEC04AF1EEC7
:104D600010FA04D1B5EEC05AF1EE10FA7ED065EE1D
:104D7000A50A44EEA40A45EE050AB0EE600A04F066
:104D8000B7F9F0EE402A25EEA20AF0EE405A24EEE2
:104D9000A20AF0EE404A25EE220AB0EE405A92ED09
:104DA000010AD2ED030A20EE200AD2ED000A92EDAC
:104DB000021AF0EE408A40EEC18A92ED000AD2ED6E
:104DC000010A20EE200AD2ED020A92ED031AF0EE5B
:104DD000409A40EE819AD2ED000A92ED001AB6EEAA
:104DE000000A10EE810AD2ED030A92ED031AB0EE2A
:104DF000409A00EE819A24EE890AF0EE407A45EE60
:104E0000697A25EE280AB0EE40AA05EEC9AA25EE79
:104E1000A90AB0EE408A04EEE88A7C4890ED000AC8
:104E2000B5EEC00AF1EE10FA40DD90ED000A60EE3A
:104E3000270A774890ED000A9FED761A00EE810A66
:104E400080ED000A714890ED000A60EE0A0A72488F
:104E500090ED000A9FED6F1A00EE810A80ED000AC6
:104E60006A4890ED000A60EE080A00E046E06B48F0
:104E700090ED000A9FED671A00EE810A80ED000AAE
:104E8000634890ED000A33EE000AB0EE403A624803
:104E900090ED000A33EE800AF0EE403A5F4890ED64
:104EA000000A34EE000AB0EE404A0EE09FED5C0AC4
:104EB000574880ED000A9FED5A0A574880ED000AD6
:104EC0009FED570A554880ED000A5648D0ED000A7C
:104ED000B0EE430A00EEA70AB0EE403AD0ED000A69
:104EE000B0EE630A00EE8A0AF0EE403AD0ED000A16
:104EF000B0EE440A00EE880AB0EE404A9FED4A0A3E
:104F000023EE000AB0EE403A9FED470A23EE800AF6
:104F1000F0EE403A9FED440A24EE000AB0EE404A1B
:104F200092ED006AD2ED016A92ED027AB1EE660A64
:104F300020EE030A07EE630AD2ED030A00EEC40A6C
:104F4000D2ED000A30EE200A82ED000A26EE030AB6
:104F500007EE040AD2ED030A00EEE30AD2ED010ADD
:104F600030EE200A82ED010A26EE230A06EEC40A7C
:104F7000D2ED030A00EE830AD2ED020A30EE200AD7
:104F800082ED020A26EE040A06EEA30A07EE430AA1
:104F9000D2ED030A30EE200A82ED030AD2ED000AB8
:104FA00060EEA00A92ED011AD2ED011A41EE210A3B
:104FB00092ED021AD2ED021A41EE210A92ED031A85
:104FC000D2ED031A41EE210AB0EE600A04F090F827
:104FD000F0EE402A92ED000A20EE220A82ED000A4D
:104FE00092ED010A20EE220A82ED010A92ED020AF8
:104FF00020EE220A82ED020A92ED030A20EE220A36
:1050000082ED030ABDEC068B00BD0000A00000206D
:10501000A40000206F12833AA8000020AC000020FA
:10502000000000009C0000206F12033A00BFFEE762
:1050300010B50823094A40F205110948FBF77AFD2B
:105040000A20FCF7FDFF0823044A4FF4837104484B
:10505000FBF770FD0A20FCF7F3FF10BD7000002085
:105060000C08002070470000B0EE401A10B99FED08
:10507000790A704790ED100A80ED110A90ED0F0A41
:1050800080ED100AC0ED060A80ED071A30EEC10A65
:1050900080ED0F0A0178002975D190ED010AD0ED5D
:1050A0000F1A20EE210A80ED090A90ED0A0AD0EDD0
:1050B000021A90ED0F2A01EE820A80ED0A0A90EDA5
:1050C0000D0A80ED0E0A90ED0C0A80ED0D0A90EDB0
:1050D0000F0AD0ED101A30EE610A80ED0C0A90ED47
:1050E000030AD0ED0C1A20EE210A80ED0B0A90ED98
:1050F0000A0AD0ED051AB4EEE10AF1EE10FA04DD69
:1051000090ED050A80ED0A0A10E090ED0A0AD0ED54
:10511000051AF1EE611AB4EEE10AF1EE10FA05D2C9
:1051200090ED050AB1EE400A80ED0A0A90ED090AF9
:10513000D0ED0A1A30EE210AD0ED0B1A30EE210A1A
:1051400080ED080A90ED080AD0ED041AB4EEE10AE9
:10515000F1EE10FA04DD90ED040A80ED080A76E025
:1051600090ED080AD0ED041AF1EE611AB4EEE10AEE
:10517000F1EE10FA6BD290ED040AB1EE400A80ED28
:10518000080A64E0FFE70178012960D190ED0F0A79
:10519000D0ED101A30EE610AD0ED011A20EE210A8E
:1051A00080ED090A90ED020AD0ED0F1A20EE210AD7
:1051B00080ED0A0A90ED0D0A80ED0E0A90ED0C0AC2
:1051C00080ED0D0A90ED0F0AD0ED101AB0EE002A16
:1051D00002EE610AD0ED111A30EE210A80ED0C0AC0
:1051E00090ED030AD0ED0C1A20EE210A80ED0B0A97
:1051F00090ED090AD0ED0A1A30EE210AD0ED0B1A13
:1052000030EE210AD0ED081A30EE210A80ED080AAE
:1052100090ED080AD0ED041AB4EEE10AF1EE10FAAE
:1052200004DD90ED040A80ED080A10E090ED080A14
:10523000D0ED041AF1EE611AB4EEE10AF1EE10FAC3
:1052400005D290ED040AB1EE400A80ED080A90ED17
:10525000080A0EE70000000000B102B970470170B3
:1052600092ED001A80ED011A92ED011A80ED021AFA
:1052700092ED021A80ED031A80ED040AC0ED050AD2
:105280009FED0C1A80ED0E1A80ED0D1A80ED0C1AB0
:105290009FED081A80ED081A80ED0B1A80ED0A1AAE
:1052A00080ED091A80ED111A80ED101A80ED0F1AA9
:1052B00000BFD3E7000000002DE9F7432DED020BFE
:1052C00080460C4617466D4601AE1948076000201F
:1052D00017498860C86008200861287820766978B6
:1052E0006176A978A176E978E176317821777178CD
:1052F0006177B178A177F178E177012304F11802A1
:105300000B494046FCF70BF970B1022304F1180277
:1053100007494046FCF703F930B1042304F11802B1
:1053200003494046FCF7FBF805B0BDE8F0830000F8
:10533000CC0B002010B5FB4B1B681B6823F001034E
:10534000F84C24682360F84B1B681B6823F00103AA
:10535000F54C2468236007E0F24B1B681B6823F0C0
:105360000103F04C24682360EE4B1B681B6803F0BC
:105370000103002BF0D107E0EB4B1B681B6823F007
:105380000103E94C24682360E74B1B681B6803F0AA
:105390000103002BF0D1E54BDB6C1B68E44CA3420E
:1053A00075D9E24BDB6C1B68E24CA34201D1202390
:1053B00068E0DE4BDB6C1B68DD4C483CA34201D14E
:1053C00020235FE0D94BDB6C1B68DA4C6034A342CE
:1053D00001D1202356E0D54BDB6C1B68D44C18342C
:1053E000A34201D120234DE0D04BDB6C1B68D14C94
:1053F0001834A34201D1DB1444E0CC4BDB6C1B68B6
:10540000CB4C303CA34201D1DB143BE0C74BDB6CFF
:105410001B68C84C7834A34201D1DB1432E0C34B83
:10542000DB6C1B68C24C3034A34201D1DB1429E091
:10543000BE4BDB6C1B68BF4C3034A34202D14FF42F
:1054400000131FE0B94BDB6C1B68B94C183CA3423E
:1054500002D14FF4001315E0B44BDB6C1B68B54C64
:105460009034A34202D14FF400130BE0AF4BDB6C3E
:105470001B68AF4C4834A34202D14FF4001301E043
:105480004FF00063AA4C4C3C236076E1FFE7A74B4A
:10549000DB6C1B68A74CA834A34275D9A34BDB6C0B
:1054A0001B68A44CA34201D1202369E09F4BDB6C15
:1054B0001B689F4C483CA34201D1202360E09B4BDA
:1054C000DB6C1B689B4C6034A34201D1202357E066
:1054D000964BDB6C1B68964C1834A34201D12023F9
:1054E0004EE0924BDB6C1B68924C1834A34201D106
:1054F000DB1445E08D4BDB6C1B688D4C303CA342CC
:1055000001D1DB143CE0894BDB6C1B68894C78349F
:10551000A34201D1DB1433E0844BDB6C1B68844C69
:105520003034A34201D1DB142AE0804BDB6C1B68D2
:10553000804C3034A34202D14FF4001320E07B4B67
:10554000DB6C1B687A4C183CA34202D14FF4001369
:1055500016E0764BDB6C1B68764C9034A34202D18C
:105560004FF400130CE0714BDB6C1B68704C48343B
:10557000A34203D14FF4001302E005E04FF00063B3
:105580006B4C503C2360F8E0684BDB6C1B68694C4B
:105590004834A34275D9654BDB6C1B68654CA3424C
:1055A00001D1202368E0614BDB6C1B68604C483CF8
:1055B000A34201D120235FE05C4BDB6C1B685D4C98
:1055C0006034A34201D1202356E0584BDB6C1B68AA
:1055D000574C1834A34201D120234DE0534BDB6CD0
:1055E0001B68544C1834A34201D1DB1444E04F4BE8
:1055F000DB6C1B684E4C303CA34201D1DB143BE01A
:105600004A4BDB6C1B684B4C7834A34201D1DB1452
:1056100032E0464BDB6C1B68454C3034A34201D171
:10562000DB1429E0414BDB6C1B68424C3034A34255
:1056300002D14FF400131FE03C4BDB6C1B683C4C69
:10564000183CA34202D14FF4001315E0374BDB6C3A
:105650001B68384C9034A34202D14FF400130BE086
:10566000324BDB6C1B68324C4834A34202D14FF4FE
:10567000001301E04FF000632E4C103CE3607CE02F
:10568000FFE72A4BDB6C1B682A4CA34201D1202385
:1056900070E0264BDB6C1B68254C483CA34201D1D3
:1056A000202367E0214BDB6C1B68224C6034A34253
:1056B00001D120235EE01D4BDB6C1B681C4C1834B1
:1056C000A34201D1202355E0184BDB6C1B68194C19
:1056D0001834A34201D1DB144CE0144BDB6C1B6883
:1056E000134C303CA34201D1DB1443E00F4BDB6C85
:1056F0001B68104C7834A34201D1DB143AE00B4B09
:10570000DB6C1B680A4C3034A34201D1DB1431E05E
:10571000064BDB6C1B68074C3034A3420CD14FF4B2
:10572000001327E00809002068090020B0080020C5
:105730005864024010600240F74BDB6C1B68F74C6A
:10574000A34202D14FF4001314E0F34BDB6C1B684F
:10575000F34CA34202D14FF400130BE0EE4BDB6C91
:105760001B68EE4C6034A34202D14FF4001301E0F9
:105770004FF00063EA4CA03CA360E74BDB6C1B6876
:10578000E64C1834A34274D9E34BDB6C1B68E44C41
:10579000903CA34201D1102366E0DF4BDB6C1B6819
:1057A000DE4C303CA34201D110235DE0DA4BDB6CD0
:1057B0001B68DB4C303CA34201D1102354E0D64B94
:1057C000DB6C1B68D54C3034A34201D110234BE075
:1057D000D14BDB6C1B68D24C783CA34201D11B152A
:1057E00042E0CD4BDB6C1B68CC4C183CA34201D192
:1057F0001B1539E0C84BDB6C1B68C94C183CA34235
:1058000001D11B1530E0C44BDB6C1B68C34C483422
:10581000A34201D11B1527E0BF4BDB6C1B68C04CBA
:10582000603CA34202D14FF480131DE0BA4BDB6C05
:105830001B68BA4CA34202D14FF4801314E0B64B5C
:10584000DB6C1B68B64CA34202D14FF480130BE013
:10585000B14BDB6C1B68B14C6034A34202D14FF4F6
:10586000801301E04FF08063AC4C343C236070E166
:10587000FFE7A94BDB6C1B68A94C1834A34274D911
:10588000A54BDB6C1B68A64C903CA34201D11023B6
:1058900066E0A14BDB6C1B68A04C303CA34201D1FD
:1058A00010235DE09C4BDB6C1B689D4C303CA3429D
:1058B00001D1102354E0984BDB6C1B68974C3034BB
:1058C000A34201D110234BE0934BDB6C1B68944C3B
:1058D000783CA34201D11B1542E08F4BDB6C1B6867
:1058E0008E4C183CA34201D11B1539E08A4BDB6C6E
:1058F0001B688B4C183CA34201D11B1530E0864B32
:10590000DB6C1B68854C4834A34201D11B1527E092
:10591000814BDB6C1B68824C603CA34202D14FF48C
:1059200080131DE07C4BDB6C1B687C4CA34202D1D6
:105930004FF4801314E0784BDB6C1B68784CA34267
:1059400002D14FF480130BE0734BDB6C1B68734C7C
:105950006034A34202D14FF4801301E04FF0806322
:105960006E4C383C2360F4E0FFE76B4BDB6C1B684C
:105970006B4C483CA34274D9674BDB6C1B68684C8A
:10598000903CA34201D1102366E0634BDB6C1B68A3
:10599000624C303CA34201D110235DE05E4BDB6CD6
:1059A0001B685F4C303CA34201D1102354E05A4B9A
:1059B000DB6C1B68594C3034A34201D110234BE0FF
:1059C000554BDB6C1B68564C783CA34201D11B1530
:1059D00042E0514BDB6C1B68504C183CA34201D198
:1059E0001B1539E04C4BDB6C1B684D4C183CA3423B
:1059F00001D11B1530E0484BDB6C1B68474C483429
:105A0000A34201D11B1527E0434BDB6C1B68444CC0
:105A1000603CA34202D14FF480131DE03E4BDB6C8F
:105A20001B683E4CA34202D14FF4801314E03A4B62
:105A3000DB6C1B683A4CA34202D14FF480130BE09D
:105A4000354BDB6C1B68354C6034A34202D14FF4FC
:105A5000801301E04FF08063314CA03CE36078E0BC
:105A6000FFE72D4BDB6C1B682D4C903CA34201D112
:105A700010236BE0284BDB6C1B68284C303CA342A6
:105A800001D1102362E0244BDB6C1B68244C303CBA
:105A9000A34201D1102359E01F4BDB6C1B681F4C44
:105AA0003034A34201D1102350E01B4BDB6C1B6848
:105AB0001B4C783CA34201D11B1547E0164BDB6C15
:105AC0001B68164C183CA34201D11B153EE0124B3B
:105AD000DB6C1B68124C183CA34201D11B1535E04E
